:100000000C9462000C947F000C947F000C947F0091
:100010000C947F000C947F000C947F000C947F0064
:100020000C947F000C947F000C947F000C947F0054
:100030000C947F000C947F000C947F000C947F0044
:100040000C9460020C947F000C947F000C947F0051
:100050000C947F000C947F000C947F000C947F0024
:100060000C947F000C947F00000000002400270007
:100070002A0000000000250028002B0000000008D6
:10008000000201000003040700000000000000005F
:1000900000000000230026002900040404040404D6
:1000A0000404020202020202030303030303010227
:1000B00004081020408001020408102001020408F6
:1000C0001020EF0211241FBECFEFD8E0DEBFCDBF5E
:1000D00021E0A0E0B1E001C01D92A531B207E1F737
:1000E00010E0C2E6D0E004C02197FE010E94B404F3
:1000F000C136D107C9F70E9434030C94BA040C949A
:100100000000833081F028F4813099F08230A9F02A
:1001100008958730A9F08830C9F08430B1F4809117
:1001200080008F7D03C0809180008F778093800056
:10013000089584B58F7784BD089584B58F7DFBCFF6
:100140008091B0008F778093B00008958091B000C7
:100150008F7DF9CFCF93DF93282F30E0F901E4585A
:10016000FF4F8491F901E255FF4FD491F901E65612
:10017000FF4FC491CC23A1F081110E948100EC2F8C
:10018000F0E0EE0FFF1FE057FF4FA591B491EC9107
:10019000ED2381E090E009F480E0DF91CF910895B4
:1001A00080E090E0FACF1F93CF93DF93282F30E0C9
:1001B000F901E458FF4F8491F901E255FF4FD491C2
:1001C000F901E656FF4FC491CC23A9F0162F8111F7
:1001D0000E948100EC2FF0E0EE0FFF1FEE58FF4F62
:1001E000A591B4918FB7F894EC91111108C0D095F6
:1001F000DE23DC938FBFDF91CF911F910895DE2B1B
:10020000F8CFCF93DF9360E08CE00E94D30060E0F2
:1002100088E00E94D300C7E0D0E060E084E00E9464
:10022000D30080910F0190E00C2E02C09595879528
:100230000A94E2F761E080FF60E088E00E94D3006A
:1002400061E084E00E94D300219738F761E08CE000
:10025000DF91CF910C94D300CF93DF9390E0FC011A
:10026000E255FF4F249186569F4FFC0184918823CD
:10027000D1F090E0880F991FFC01E859FF4FA5913C
:10028000B491FC01EE58FF4FC591D49161110EC09D
:100290009FB7F8948C91E22FE0958E238C93288160
:1002A000E223E8839FBFDF91CF9108958FB7F89441
:1002B000EC91E22BEC938FBFF6CF61E08CE00E94D3
:1002C0002C0161E087E00E942C0161E088E00E943F
:1002D0002C0161E084E00E942C0110920F010E9429
:1002E000010160E087E00C94D3003FB7F89480915F
:1002F000050190910601A0910701B091080126B572
:10030000A89B05C02F3F19F00196A11DB11D3FBF4D
:10031000BA2FA92F982F8827BC01CD01620F711D1C
:10032000811D911D42E0660F771F881F991F4A9516
:10033000D1F708958F929F92AF92BF92CF92DF92A2
:10034000EF92FF926B017C010E9475014B015C01F1
:10035000C114D104E104F104B9F00E9475016819D7
:1003600079098A099B09683E73408105910580F3EC
:1003700021E0C21AD108E108F10888EE880E83E076
:10038000981EA11CB11CE4CFFF90EF90DF90CF909E
:10039000BF90AF909F908F900895FC018081823034
:1003A00061F018F4813031F00895833049F08430E1
:1003B00049F008956093B30008956093B4000895E0
:1003C00067BD089568BD0895FC018081823069F0A1
:1003D00028F423E092E0813051F00895833011F148
:1003E00026E090E0843019F0089524E091E0623036
:1003F000E1F0643079F1613009F03FC041E050E054
:10040000BA0101C0660F9A95EAF780910F01862B19
:1004100001C0440F2A95EAF74095482340930F0105
:100420000C94010127E095E0E2CF41E050E0BA01F1
:1004300002C0660F771F9A95E2F7CB0180959091E5
:100440000F01892301C0440F2A95EAF7842B80937A
:100450000F01E6CF41E050E0FA0102C0EE0FFF1FAE
:100460009A95E2F7CF0101C0440F2A95EAF7842B51
:10047000809590910F018923EACF08951F93CF9320
:10048000DF93182FEB01682F81E191E00E94CD01ED
:10049000612F83E191E00E94CD0161E083E191E071
:1004A0000E94E40161E081E191E00E94E401BE016B
:1004B000DD0F880B990BDF91CF911F910C949A015E
:1004C0001F920F920FB60F9211242F933F938F9389
:1004D0009F93AF93BF938091010190910201A091EE
:1004E0000301B09104013091000123E0230F2D3767
:1004F00058F50196A11DB11D2093000180930101C3
:1005000090930201A0930301B0930401809105012F
:1005100090910601A0910701B09108010196A11DDB
:10052000B11D8093050190930601A0930701B0933C
:100530000801BF91AF919F918F913F912F910F90A3
:100540000FBE0F901F90189526E8230F0296A11D4D
:10055000B11DD2CFCF92DF92EF92FF920F931F93F4
:10056000E82FF92F05C0015011092109310961F166
:10057000908196239417B9F305C001501109210900
:10058000310911F1908196239413F7CFC12CD12C0E
:10059000E12CF12C0AC08FEFC81AD80AE80AF80A31
:1005A0000C151D052E053F0579F0808186238417E3
:1005B00091F36C2D7D2D8E2D9F2D1F910F91FF900E
:1005C000EF90DF90CF90089560E070E080E090E0E1
:1005D0001F910F91FF90EF90DF90CF900895EF92D1
:1005E000FF920F931F93CF9310921001E3E1F1E07C
:1005F00081E08083C2E0C1830E945D0180910F0190
:10060000837F80930F010E94010100EB10E0F8014D
:1006100080818368808381EBE82EF12CF701C08311
:100620001092B30061E08BE00E942C01E1E1F1E067
:10063000C083C1830E945D0180910F018D7E8093F4
:100640000F010E940101F801808183628083F7011C
:10065000C0831092B40061E083E0CF911F910F91AD
:10066000FF90EF900C942C01789484B5826084BD47
:1006700084B5816084BD85B5826085BD85B58160A6
:1006800085BD80916E00816080936E001092810024
:1006900080918100826080938100809181008160DF
:1006A00080938100809180008160809380008091A0
:1006B000B10084608093B1008091B000816080932C
:1006C000B00080917A00846080937A0080917A00F3
:1006D000826080937A0080917A00816080937A00B2
:1006E00080917A00806880937A001092C10060E067
:1006F00082E00E942C0160E08FE00E942C0160E00B
:100700008EE00E942C0161E08AE00E942C0160E0F2
:1007100089E00E942C016AEF83E191E00E94CD0103
:100720006AEF81E191E00E94CD0164E083E191E014
:100730000E94E40164E081E191E00E94E40182E032
:100740000E94AA000197D9F768E873E180E090E081
:100750000E949A0193E2C92ED12C27EB422E20E071
:10076000522E33EA632E30E0732E4AE3A42EB12CCE
:1007700050E0852E50E0952EEE24E394F12C61E0BC
:100780008AE00E94D300C6010197F1F760E08AE099
:100790000E94D300F2016491F3018491E82FF0E00C
:1007A000EE0FFF1FE057FF4F8591949100E412E494
:1007B0002FE030E0462F0E94AA02611571058105E5
:1007C000910529F06F5F7F4F8F4F9F4F9F70CB0137
:1007D000B5010E948C04EB0165E070E080E090E0E0
:1007E0000E949A018FE00E94AA008C0190930E0152
:1007F00080930D018EE00E94AA0001301105D9F40A
:100800008130910511F510920C0110920B0110929C
:100810000A011092090165970CF05DC080910901F1
:1008200090910A01892B21F564E670E08AEF90E04F
:100830000E943E021DC0012B41F4F0920C01E09297
:100840000B0110920A0110920901892B49F41092B0
:100850000C0110920B01F0920A01E0920901DBCF2A
:100860006597CCF580910B0190910C01892BB1F229
:1008700080910B0190910C010197D1F468EC81E11A
:1008800091E00E94CD0168EC83E191E00E94CD01EE
:1008900062E083E191E00E94E40162E081E191E0A5
:1008A0000E94E40168EE73E080E090E00E949A010B
:1008B0008091090190910A01019731F468EE73E08B
:1008C00088EC90E00E943E028114910409F457CF15
:1008D0000E94000054CF80910B0190910C01892B54
:1008E00039F68091090190910A01892B09F766E98F
:1008F00081E191E00E94CD0166E983E191E00E94EF
:10090000CD0161E083E191E00E94E40162E081E1D8
:1009100091E00E94E401ACCF97FB072E16F40094FF
:1009200007D077FD09D00E94A00407FC05D03EF453
:10093000909581959F4F0895709561957F4F08958B
:10094000AA1BBB1B51E107C0AA1FBB1FA617B707F5
:1009500010F0A61BB70B881F991F5A95A9F7809511
:100960009095BC01CD010895EE0FFF1F0590F49105
:08097000E02D0994F894FFCF7B
:00000001FF
