:100000000C9462000C947F000C947F000C947F0091
:100010000C947F000C947F000C947F000C947F0064
:100020000C947F000C947F000C947F000C947F0054
:100030000C947F000C947F000C947F000C947F0044
:100040000C94B6010C947F000C947F000C947F00FC
:100050000C947F000C947F000C947F000C947F0024
:100060000C947F000C947F00000000002400270007
:100070002A0000000000250028002B0000000000DE
:1000800023002600290004040404040404040202DA
:100090000202020203030303030301020408102007
:1000A0004080010204081020010204081020000012
:1000B0000008000201000003040700000000000027
:1000C0000000000211241FBECFEFD8E0DEBFCDBF7D
:1000D00021E0A0E0B1E001C01D92AF30B207E1F72E
:1000E00010E0C2E6D0E004C02197FE010E94E802C1
:1000F000C136D107C9F70E9445020C94EE020C9458
:100100000000833081F028F4813099F08230A9F02A
:1001100008958730A9F08830C9F08430B1F4809117
:1001200080008F7D03C0809180008F778093800056
:10013000089584B58F7784BD089584B58F7DFBCFF6
:100140008091B0008F778093B00008958091B000C7
:100150008F7DF9CF1F93CF93DF93282F30E0F901E4
:10016000E255FF4F8491F901E656FF4FD491F90112
:10017000EA57FF4FC491CC23A9F0162F81110E949A
:100180008100EC2FF0E0EE0FFF1FEE58FF4FA5911E
:10019000B4918FB7F894EC91111108C0D095DE237B
:1001A000DC938FBFDF91CF911F910895DE2BF8CFA5
:1001B000CF93DF9360E08CE00E94AA0060E088E0CB
:1001C0000E94AA00C7E0D0E060E084E00E94AA009C
:1001D0008091090190E00C2E02C0959587950A94B4
:1001E000E2F761E080FF60E088E00E94AA0061E041
:1001F00084E00E94AA00219738F761E08CE0DF914B
:10020000CF910C94AA00CF93DF9390E0FC01E656C7
:10021000FF4F24918A579F4FFC0184918823D1F08E
:1002200090E0880F991FFC01E859FF4FA591B49108
:10023000FC01EE58FF4FC591D49161110EC09FB7DC
:10024000F8948C91E22FE0958E238C932881E22301
:10025000E8839FBFDF91CF9108958FB7F894EC9119
:10026000E22BEC938FBFF6CF61E08CE00E9403019C
:1002700061E087E00E94030161E088E00E940301E1
:1002800061E084E00E940301109209010E94D800FD
:1002900060E087E00C94AA003FB7F89480910501D4
:1002A00090910601A0910701B091080126B5A89B85
:1002B00005C02F3F19F00196A11DB11D3FBFBA2FF8
:1002C000A92F982F8827BC01CD01620F711D811DB8
:1002D000911D42E0660F771F881F991F4A95D1F73D
:1002E0000895FC018081823061F018F4813031F092
:1002F0000895833049F0843049F008956093B30045
:1003000008956093B400089567BD089568BD089589
:10031000FC018081823049F018F4813021F1089588
:100320008330D9F08430E1F0089544E081E021E0A9
:1003300030E0B90102C0660F771F8A95E2F7CB0162
:1003400001C0220F4A95EAF7822B8095909109010E
:100350008923809309010C94D80047E085E0E7CF1A
:1003600046E080E0E4CF43E082E0E1CF1F920F92CD
:100370000FB60F9211242F933F938F939F93AF93B8
:10038000BF938091010190910201A0910301B0916E
:1003900004013091000123E0230F2D3758F5019619
:1003A000A11DB11D209300018093010190930201D2
:1003B000A0930301B093040180910501909106017F
:1003C000A0910701B09108010196A11DB11D809374
:1003D000050190930601A0930701B0930801BF9116
:1003E000AF919F918F913F912F910F900FBE0F90E2
:1003F0001F90189526E8230F0296A11DB11DD2CF9C
:10040000EF92FF920F931F93CF9310920A01EDE0AA
:10041000F1E081E08083C2E0C1830E9434018091D9
:100420000901837F809309010E94D80000EB10E04E
:10043000F80180818368808381EBE82EF12CF7013D
:10044000C0831092B30061E08BE00E940301EBE0F7
:10045000F1E0C083C1830E943401809109018D7E47
:10046000809309010E94D800F80180818362808313
:10047000F701C0831092B40061E083E0CF911F9137
:100480000F91FF90EF900C940301789484B58260F3
:1004900084BD84B5816084BD85B5826085BD85B528
:1004A000816085BD80916E00816080936E001092A6
:1004B0008100809181008260809381008091810021
:1004C00081608093810080918000816080938000B2
:1004D0008091B10084608093B1008091B000816010
:1004E0008093B00080917A00846080937A0080913C
:1004F0007A00826080937A0080917A008160809394
:100500007A0080917A00806880937A001092C1000E
:1005100060E082E00E9403016FEF8DE091E00E94B5
:1005200071016FEF8BE091E00E9471018DE091E02D
:100530000E9488018BE091E00E948801C0EBD0E02E
:100540000CE910E028E8E22E20E0F22EFE01849172
:10055000F801C490F701D490DD20C1F381110E940D
:100560008100ED2DF0E0EE0FFF1FE458FF4FA59145
:10057000B4918C91C82251F30E944C014B015C0153
:1005800088E8C82E83E1D82EE12CF12C0E944C0182
:10059000681979098A099B09683E734081059105AC
:1005A000A8F3F1E0CF1AD108E108F10828EE820E95
:1005B00023E0921EA11CB11CC114D104E104F1047A
:1005C00029F7C0E0D0E02097F1F30E940000FBCFB4
:1005D000EE0FFF1F0590F491E02D0994F894FFCFE2
:00000001FF
